:020000040040BA
:10000000A8390020090D4000050D4000050D4000F5
:10001000050D4000050D4000050D400000000000EA
:10002000000000000000000000000000050D40007E
:10003000050D400000000000050D4000050D4000CA
:10004000050D4000050D4000050D4000050D400068
:10005000050D4000050D4000050D4000050D400058
:10006000050D4000050D4000000000004109400062
:100070005509400069094000050D4000050D40008C
:100080000000000000000000050D4000050D4000CC
:10009000050D4000050D4000050D4000050D400018
:1000A000050D4000050D4000050D4000050D400008
:1000B000050D4000050D4000050D4000050D4000F8
:1000C000050D4000050D4000050D400008B5054830
:1000D000054B1B1A062B00D808BD044B002BFBD088
:1000E0009847F9E7AC5E4000AF5E400000000000BA
:1000F00008B50748074B1B1A9B1003EBD373591025
:1001000000D108BD044A002AFBD09047F9E700BFA0
:10011000AC5E4000AC5E40000000000010B5064C34
:10012000237843B9FFF7D2FF044B13B10448AFF370
:1001300000800123237010BDD408002000000000BF
:10014000AC5E400008B5084B1BB108480849AFF346
:1001500000800848036813B1074B03B19847BDE816
:100160000840FFF7C5BF00BF00000000AC5E4000C4
:10017000D8080020AC5E40000000000070B582B0DE
:10018000064602AC022344F8043D094D28462146A8
:10019000084B98474FF40012074B5A63EE60562005
:1001A000064B984728462146054B984702B070BD3C
:1001B00000800040E903400000120E4001000020D2
:1001C00019044000F0B585B0254D4FF000466E6330
:1001D0005620244CA0472E635620A047022704AE89
:1001E00046F8047D204C2046204B9847002500957A
:1001F000204631462A461E4B1E4EB047012323603F
:10020000A8201D4CA0471F20A047D320A047284668
:10021000A0474020A047A120A047C820A047DA203F
:10022000A0473846A0478120A0478F20A047A420A0
:10023000A047A620A047D520A0478020A0478D201A
:10024000A0471420A047DB20A0474020A047D9208A
:10025000A047F120A047AF20A04705B0F0BD00BFE8
:1002600000120E40010000200080004019034000F1
:10027000404B4C006D0340007D01400000B585B04F
:1002800000230393074B019342F210730293132050
:10029000054B9847054801A9054B984705B05DF8FF
:1002A00004FB00BF000E2707F10A40000080014058
:1002B000A90C400010B50E480E4B984700203E2177
:1002C0000D4B98470D4CA0470028FCD00C4B98478D
:1002D0000C4A0D4B9A620D4CA0470028FCD0102010
:1002E0000B4B98470B4B98470148024B984710BD62
:1002F000000E2707D10E40006D0A4000C10A4000E1
:10030000D10A4000013F132000040E40E10A4000E2
:10031000090A4000BD0D400010B50446104B984737
:1003200080232360636843F001036360636843F0E4
:1003300010036360636823F080036360204600213C
:10034000084B9847636823F002036360636823F0F7
:100350000403636020460021034B984710BD00BF93
:10036000490B4000590B4000710B4000F8B50546A1
:100370000C46164618461449144B9847074628461B
:10038000216800221346DFF85CC0E0472846216858
:1003900008220F4B984728462168FAB20D4B984720
:1003A0002846216808220C4B984728462168720885
:1003B0000A4B984786F001022846216802F00102A4
:1003C000074B9847F8BD00BF000E27071D0C4000E3
:1003D000090C4000350C4000C50B4000850B400067
:1003E000A50B40004D0C400008B5436813F0040F06
:1003F00005D009680F290BD8064B984708BD0B6834
:10040000032B05D8012202FA03F1C943014B984797
:1004100008BD00BF590B400010B50446236913F412
:10042000007FFBD020460F21024B98474FF080738E
:10043000236010BD590B4000F8B53848384B984739
:100440000B20384CA0470C20A0470D20A047364B6E
:100450004FF400021A631A61C3F8A020334C04253C
:100460006561C4F8A0506566C4F890506565656222
:10047000C4F88050226F22F004022267626F22F0DB
:10048000040262674FF480121A631A61C3F8A02055
:100490004FF4803222632261C4F8A0204FF480021E
:1004A0001A631A61C3F8A02021480C214FF00062A2
:1004B000204B9847204F03203946204EB04728460E
:1004C0003946B0470C203946B0470D203946B04771
:1004D0000E203946B04709204FF08051B0470A201E
:1004E0001749B04707F1405755203946B0475F20BC
:1004F0003946B0475B201349B0476566C4F8905051
:1005000065656562C4F88050236F23F00403236798
:10051000636F23F004036367F8BD00BF50140E40FF
:10052000FD0C4000F10A400000120E40000E0E408B
:1005300000100E40B9074000010000089506400079
:100540000100001001000028C0F8841052004FF490
:100550000043B3FBF2F3013BC3F30D03C0F88C304F
:10056000704700BF10B44264B1F1C05F2ED008D80C
:10057000B1F1006F14D0B1F1805F1DD0002935D1E9
:1005800035E0B1F1205F32D003D8B1F1005F27D060
:100590002CE0B1F1405F2AD0B1F1605F27D025E0B7
:1005A000016F046FD343214019400167416F446FCD
:1005B00021400B40436719E0036F13430367436F08
:1005C000416F0B4023EA020343670FE0036F016FA3
:1005D0000B4023EA02030367436F1343436705E0BD
:1005E000036F13430367436F1343436742605DF830
:1005F000044B7047416412F0010F14BF416601665D
:1006000012F00A0F14BF0162416212F0020F02D011
:10061000C0F8801004E012F0080F18BFC0F8841072
:1006200041610160704700BF10B44164019C0CB18E
:10063000416600E001660BB1016500E041650AB169
:10064000016300E04163016101605DF8044B7047A4
:1006500012F0100F10D0C0F8B01012F0200F14BF1D
:10066000C0F8D410C0F8D01012F0400F14BFC0F87A
:10067000C010C0F8C4107047C0F8B410704700BF75
:10068000C36C0164704700BF41647047C06C704721
:10069000806C704770B582B00D46440904F50014B3
:1006A00004F20774660201F0F044B4F1005F47D031
:1006B00009D8B4F1805F21D0B4F1C05F2FD0B4F17C
:1006C000006F6FD109E0B4F1405F55D0B4F1605FC5
:1006D00052D0B4F1205F44D064E000F01F00012448
:1006E000844030464FF000612246304B984715F069
:1006F000010F14BF74663466012054E000F01F003F
:100700000124844030464FF080512246274B9847C1
:1007100015F0010F14BF74663466012043E000F049
:100720001F000124844030464FF0C05122461F4B29
:10073000984715F0010F14BF74663466012032E04B
:1007400000F01F000124844030464FF00051224643
:10075000164B984715F0010F14BF746634660120DC
:1007600021E000F01F010124304604FA01F12A467D
:100770000F4B9847204616E000F01F01012405F0BA
:10078000605205EA04030093304604FA01F1B2F125
:10079000605F14BF00220122C5F38003054DA84706
:1007A000204600E0002002B070BD00BF650540009B
:1007B000F505400029064000F0B583B007460E4617
:1007C000154602F0F044B4F1005F38D009D8B4F116
:1007D000805F1CD0B4F1C05F25D0B4F1006F50D160
:1007E00009E0B4F1405F3AD0B4F1605F37D0B4F1C2
:1007F000205F30D045E04FF000613246224B9847F1
:1008000015F0010F14BF7E663E6601203AE04FF0FE
:10081000805132461C4B984715F0010F14BF7E667D
:100820003E6601202EE04FF0C0513246164B9847ED
:1008300015F0010F14BF7E663E66012022E04FF0E6
:1008400000513246104B984715F0010F14BF7E66D9
:100850003E66012016E00D4B9847012012E005F09E
:10086000605205F00103009338463146B2F1605FF3
:1008700014BF00220122C5F38003054CA0470120CC
:1008800000E0002003B0F0BD65054000F505400024
:10089000290640002DE9F84381460E46144B98473F
:1008A00005464846134B9847054017D0124F07F1AD
:1008B0000C046C3754F80C3CB3420AD154F8081CB1
:1008C000294206D023683046984754F8083C25EA68
:1008D0000305BC4202D01034002DEBD1074B1B683E
:1008E00023B1074B1B680BB148469847BDE8F88316
:1008F0008D06400091064000F8080020A009002065
:10090000F4080020F8B50B4C2468062C10D80A4FC8
:100910002601BD19B9516A60AB600699E9600134DE
:1009200004490C6011461A46044B98470020F8BD54
:100930000120F8BDF0080020F80800205106400012
:1009400008B502480B21024B984708BD000E0E4027
:100950009508400008B502480C21024B984708BD95
:1009600000100E409508400008B502480D21024BCA
:10097000984708BD00120E40950840002DE9F84345
:1009800005460C4691461B4B9847804628464FF03B
:10099000FF31194B98472846184B9847E7B207F0A4
:1009A0001F0301269E4063099B0003F1604303F58A
:1009B0006143C3F88060C3F88061002C09DA07F056
:1009C0000F074FEA09195FFA89F90D4A02F80790F3
:1009D00009E04FEA09195FFA89F904F1604404F566
:1009E000614484F800931E6028464146054B9847B1
:1009F000BDE8F88391064000890640008D0640005E
:100A000014ED00E081064000174B1A6B22F07002D3
:100A1000104318639B6E13F0080F09D14FF4006365
:100A2000114901E0013B19D08A6E12F0080FF9D08C
:100A30000D4B1A6B22F0030242F002021A63986E09
:100A400010F008000CD14FF40063074901E0013BAE
:100A500008D08A6E12F0080FF9D070470120704755
:100A6000002070470120704700040E4038B1114942
:100A70000B6A114A1A40114B13430B6270470D4A1F
:100A8000136A23F45C1323F0030343F45C1343F071
:100A90000103090289B20B431362936E13F0010F35
:100AA000FBD0044A136A43F09B7343F48033136210
:100AB000704700BF00040E40FCFFC8FE0200370173
:100AC000024B986E00F48030704700BF00040E4067
:100AD0004FF00052014B9A62704700BF00040E4075
:100AE000024B986E00F00200704700BF00040E40F9
:100AF000222820D81F280DD8124B9A690123834041
:100B00001A40934219D0012303FA00F00D4B1861EB
:100B1000002070470B4BD3F8082120380123834075
:100B20001A4093420BD0012303FA00F0054BC3F89F
:100B3000000100207047012070470020704700200E
:100B4000704700BF00040E4008B51520014B9847C0
:100B500008BD00BFF10A4000436823F470234360DE
:100B60004368090401F470210B434360704700BFE0
:100B7000436823F07F434360436843EA0161416077
:100B8000704700BF32B100EB8100036B43F00103FB
:100B90000363704700EB8100036B23F001030363E1
:100BA000704700BF32B100EB8100036B43F00203DA
:100BB0000363704700EB8100036B23F002030363C0
:100BC000704700BF042A0AD100EB8100036B23F0B9
:100BD00008030363036B43F004030363704752B9D4
:100BE00000EB8100036B23F008030363036B23F026
:100BF000040303637047082A05D100EB8100036BEF
:100C000043F008030363704700EB81010B6B23F093
:100C1000F0030B630B6B1A430A637047431E1944BE
:100C2000B1FBF0F0431EFE2B94BF80B24FF6FF7075
:100C300000B2704700EB81010B6B23F47F430B6321
:100C40000B6B43EA02220A63704700BF00EB81018D
:100C5000086B80B20863086B40EA036343EA024210
:100C60000A6370470F4B994219D84900B2FBF1F261
:100C7000043AFF2A07D9002301335208FF2A03D977
:100C8000072BF9D100E00023110289B21B0403F401
:100C9000E0230B43D2B21A430261002070470120C7
:100CA000704700BF801A060038B504460D464FF065
:100CB000FF338362036A80230360036B08230360AE
:100CC000202303600423036049682A68054B984782
:100CD000012814BF002001206B7A012B04BF4023A0
:100CE000236038BD650C4000436913F0020F02D049
:100CF000C161002070470120704700BF4FF40043DE
:100D000043607047FEE700BF10B5204B204A9A426F
:100D100012D9204B1D4A9A421FD2131D1E4CE41AB1
:100D200024F0030404340023104619495A581A5079
:100D30000433A342FAD110E0144B154A9A420CD264
:100D4000144A1946D31A1548184433B113469C1A4D
:100D5000245843F8044D9942F9D100BF104B114A71
:100D60009A420BD2131F1049C91A21F003011A1D10
:100D70001144002243F8042F8B42FBD10B4B0C4A49
:100D80009A600C4B98470C4B9847FEE700000020F8
:100D9000AC5E4000D4080020D7080020A85E4000C8
:100DA000A8090020D4080020A309002000ED00E0DD
:100DB00000004000351B40007D1140003D4B1B6B87
:100DC00003F00303032B5DD8DFE803F0020E2B2BA7
:100DD000394B5B6913F0800F14BF4FF400424FF49E
:100DE000FA42364B1A604DE0324B1B6A13F0807F9B
:100DF00003D0334A314B1A6044E0324A2F4B1A6019
:100E00002C4B1B6A03F07003102B02D0202B04D054
:100E100038E02D4A294B1A6034E0294A274B1A60E2
:100E200030E0244B1B6A13F0807F03D0244A234B0D
:100E30001A6012E0234A214B1A601E4B1B6A03F012
:100E40007003102B02D0202B04D006E01E4A1B4B4F
:100E50001A6002E01A4A194B1A60164B1B6B03F01A
:100E60000303022B134B07BF986A996AD86AD96AA1
:100E7000124BC0F30A401A6800FB0222C9B2B2FB4F
:100E8000F1F21A600B4B1B6B03F07003702B07D150
:100E90000A4B1A680D49A1FB020252081A607047FA
:100EA000044B196B054BC1F302111A68CA401A6052
:100EB000704700BF00040E4010140E400C000020CC
:100EC000001BB70000093D0000127A00ABAAAAAAD5
:100ED0001A4B984207D84FF08063194A136002F505
:100EE000007213607047174B984206D8164B144A8D
:100EF000136002F5007213607047144B984206D8D5
:100F0000134B0F4A136002F5007213607047114BC8
:100F1000984206D8104B0A4A136002F5007213601B
:100F200070470E4B984294BF4FF004230C4B044A79
:100F3000136002F500721360704700BFFF2C31018F
:100F4000000A0E40FF59620200010004FF8693036D
:100F500000020004FFB3C40400030004FFE0F50531
:100F600000050004094B1B6813B9094A074B1A60B6
:100F7000064B1B681A180749914204DB1046034AC6
:100F80001060184670474FF0FF3070476809002026
:100F9000A8390020FC7F02200B2804D1012902D1AE
:100FA0000122014B1A6070471000002070B582B01A
:100FB000064602AC022344F8043D094D284621466A
:100FC000084B98474FF40012074B5A63EE605620C7
:100FD000064B984728462146054B984702B070BDFE
:100FE00000800040E903400000120E400100002094
:100FF000190440000D2805D1B1F1804F02D1032220
:10100000014B1A60704700BF100000200D2805D169
:10101000B1F1005F02D10222014B1A60704700BF9C
:101020001000002038B50C46814214D0012904D1AB
:10103000022814BF022503251CE0022904D103283D
:1010400014BF0325012515E0032912D1012814BF7F
:10105000012502250EE001290CBF02250125064BC2
:10106000984710F0010F18BF0135A54202D1013594
:1010700000E00425284638BDA11B400038B50D46C8
:10108000044600283BD0037C13B1012B15D033E07C
:101090001E4B98471E4B83FB0023A3EBE07303EB2F
:1010A0004303C01A0130E0616561012323742946BE
:1010B000184B9847A061002038BD83698B4221D02E
:1010C000C3698B4205D102230374C3680133C36033
:1010D00001E0032303746369AB4208D06368013302
:1010E0006360237C022B02D1A3680133A3602368D1
:1010F00001332360002038BD0020207438BD4FF03C
:10110000FF3038BD4FF0FF3038BD00BFA11B40009D
:1011100056555555251040002DE9F047074616460F
:10112000134B9847824698B10025DFF84890DFF8C6
:10113000488009E04046795DC84710B10134B442A7
:10114000F8D10135554503D0002EFAD00024F1E73F
:101150005EB10024DFF820800A27064D404639465C
:10116000A84710B10134B442F8D1BDE8F08700BF00
:10117000751C4000E90C400000080E402DE9F04FBE
:10118000ABB06A4B98476A4B98476A4B98470B201D
:10119000DFF8F8A1D047684C204601210A22DFF889
:1011A000F091C847654B009320460B21012279231B
:1011B000DFF8E081C047624F4FF400633B60204698
:1011C0000B2100225F4EB047204601215E4DA8470B
:1011D0000D20D04704F5806420464FF000510A22CC
:1011E000C8475A4B009320460D214FF000527923F7
:1011F000C0474FF4005BC7F800B020460D21002225
:10120000B04720464FF00051A8470D20D047204658
:101210004FF080410A22C8474D4B009320460D21D4
:101220004FF080427923C047C7F800B020460D2117
:101230000022B04720464FF08041A847454B9847D1
:101240004FF0000ADFF850B1434FDFF85091A0464D
:101250003E460AF0070040F0B000D8471020D847BB
:101260000020D84780252AAC022344F89C3D304614
:101270002146C8474FF40013C8F830300023FB6004
:101280005620364B984730462146354B9847013D0E
:10129000E9D10AF1010ABAF1040FDAD104AC314DF7
:1012A0000FCD0FC495E80F0084E80F002E4C2F4D92
:1012B0002F4E2368042B35D0216804A8A8470423A7
:1012C00023609DF82030012B0DD10A9B00930CA8C0
:1012D00028490122099B284FB8470CA87821274AA2
:1012E000274B98471EE0022B0DD10A9B00930CA8B8
:1012F00024490222099B204FB8470CA878211F4A95
:101300001F4B98470EE0032B0CD10A9B00930CA8AF
:1013100031460322099B184FB8470CA87821174A79
:10132000174B984718480D4B9847C2E7B502400045
:10133000390440007D024000000E0E40990F40002D
:1013400000E100E07D094000810640000D104000F2
:10135000F50F4000C5014000008000400100002062
:10136000190440000C5C4000100000207D1040007B
:10137000905C40002C5C40001D1C400040420F006F
:10138000191140005C5C40001C8A0600F10A400014
:101390004905400005094000AD0F4000E903400049
:1013A00081F0004102E000BF83F0004330B54FEA16
:1013B00041044FEA430594EA050F08BF90EA020F83
:1013C0001FBF54EA000C55EA020C7FEA645C7FEA16
:1013D000655C00F0E2804FEA5454D4EB5555B8BF39
:1013E0006D420CDD2C4480EA020281EA030382EAAA
:1013F000000083EA010180EA020281EA0303362D3C
:1014000088BF30BD11F0004F4FEA01314FF4801C0E
:101410004CEA113102D0404261EB410113F0004F20
:101420004FEA03334CEA133302D0524263EB4303D7
:1014300094EA050F00F0A780A4F10104D5F1200E75
:101440000DDB02FA0EFC22FA05F2801841F10001D0
:1014500003FA0EF2801843FA05F359410EE0A5F1A4
:1014600020050EF1200E012A03FA0EFC28BF4CF0D5
:10147000020C43FA05F3C01851EBE37101F000458B
:1014800007D54FF0000EDCF1000C7EEB00006EEB98
:101490000101B1F5801F1BD3B1F5001F0CD3490822
:1014A0005FEA30004FEA3C0C04F101044FEA445279
:1014B00012F5800F80F09A80BCF1004F08BF5FEA00
:1014C000500C50F1000041EB045141EA050130BDE0
:1014D0005FEA4C0C404141EB010111F4801FA4F183
:1014E0000104E9D191F0000F04BF01460020B1FAD8
:1014F00081F308BF2033A3F10B03B3F120020CDA10
:101500000C3208DD02F1140CC2F10C0201FA0CF0ED
:1015100021FA02F10CE002F11402D8BFC2F1200C52
:1015200001FA02F120FA0CFCDCBF41EA0C01904008
:10153000E41AA2BF01EB0451294330BD6FEA040451
:101540001F3C1CDA0C340EDC04F11404C4F120023C
:1015500020FA04F001FA02F340EA030021FA04F34E
:1015600045EA030130BDC4F10C04C4F1200220FAA5
:1015700002F001FA04F340EA0300294630BD21FAE3
:1015800004F0294630BD94F0000F83F4801306BFA9
:1015900081F480110134013D4EE77FEA645C18BF9D
:1015A0007FEA655C29D094EA050F08BF90EA020F34
:1015B00005D054EA000C04BF1946104630BD91EA2C
:1015C000030F1EBF0021002030BD5FEA545C05D12F
:1015D0004000494128BF41F0004130BD14F580046E
:1015E0003CBF01F5801130BD01F0004545F0FE41E2
:1015F00041F470014FF0000030BD7FEA645C1ABF17
:10160000194610467FEA655C1CBF0B46024650EA4D
:10161000013406BF52EA033591EA030F41F4002179
:1016200030BD00BF90F0000F04BF0021704730B5FF
:101630004FF4806404F132044FF000054FF00001D4
:1016400050E700BF90F0000F04BF0021704730B595
:101650004FF4806404F1320410F0004548BF40426A
:101660004FF000013EE700BF42004FEAE2014FEABF
:1016700031014FEA02701FBF12F07F4393F07F4F9A
:1016800081F06051704792F0000F14BF93F07F4FCC
:10169000704730B54FF4607401F0004521F000410F
:1016A00020E700BF50EA010208BF704730B54FF095
:1016B00000050AE050EA010208BF704730B511F09A
:1016C000004502D5404261EB41014FF4806404F1D2
:1016D00032045FEA915C3FF4DCAE4FF003025FEA54
:1016E000DC0C18BF03325FEADC0C18BF033202EBDC
:1016F000DC02C2F1200300FA03FC20FA02F001FA36
:1017000003FE40EA0E0021FA02F11444C1E600BFD4
:1017100070B54FF0FF0C4CF4E06C1CEA11541DBF87
:101720001CEA135594EA0C0F95EA0C0F00F0DEF852
:101730002C4481EA030621EA4C5123EA4C5350EA37
:10174000013518BF52EA033541F4801143F4801388
:1017500038D0A0FB02CE4FF00005E1FB02E506F019
:101760000042E0FB03E54FF00006E1FB03569CF06E
:10177000000F18BF4EF0010EA4F1FF04B6F5007F74
:1017800064F5407404D25FEA4E0E6D4146EB0606E6
:1017900042EAC62141EA55514FEAC52040EA5E506F
:1017A0004FEACE2EB4F1FD0C88BFBCF5E06F1ED819
:1017B000BEF1004F08BF5FEA500E50F1000041EB50
:1017C000045170BD06F0004646EA010140EA0200FD
:1017D00081EA0301B4EB5C04C2BFD4EB0C0541EA1F
:1017E000045170BD41F480114FF0000E013C00F334
:1017F000AB8014F1360FDEBF002001F0004170BD58
:10180000C4F10004203C35DA0C341BDC04F1140470
:10181000C4F1200500FA05F320FA04F001FA05F2FC
:1018200040EA020001F0004221F0004110EBD370C9
:1018300021FA04F642EB06015EEA430E08BF20EAF5
:10184000D37070BDC4F10C04C4F1200500FA04F398
:1018500020FA05F001FA04F240EA020001F000412A
:1018600010EBD37041F100015EEA430E08BF20EA9D
:10187000D37070BDC4F1200500FA05F24EEA020EE5
:1018800020FA04F301FA05F243EA020321FA04F014
:1018900001F0004121FA04F220EA020000EBD370CB
:1018A0005EEA430E08BF20EAD37070BD94F0000FCB
:1018B0000FD101F00046400041EB010111F4801FFF
:1018C00008BF013CF7D041EA060195F0000F18BFB0
:1018D000704703F00046520043EB030313F4801FEC
:1018E00008BF013DF7D043EA0603704794EA0C0FA6
:1018F0000CEA135518BF95EA0C0F0CD050EA4106BC
:1019000018BF52EA4306D1D181EA030101F0004138
:101910004FF0000070BD50EA410606BF1046194660
:1019200052EA430619D094EA0C0F02D150EA01366C
:1019300013D195EA0C0F05D152EA03361CBF1046AD
:1019400019460AD181EA030101F0004141F0FE414C
:1019500041F470014FF0000070BD41F0FE4141F4D0
:10196000780170BD70B54FF0FF0C4CF4E06C1CEAD0
:1019700011541DBF1CEA135594EA0C0F95EA0C0F85
:1019800000F0A7F8A4EB050481EA030E52EA033540
:101990004FEA013100F088804FEA03334FF0805561
:1019A00045EA131343EA12634FEA022245EA11158E
:1019B00045EA10654FEA00260EF000419D4208BF3F
:1019C000964244F1FD0404F5407402D25B084FEAEC
:1019D0003202B61A65EB03055B084FEA32024FF498
:1019E00080104FF4002CB6EB020E75EB030E22BFF5
:1019F000B61A754640EA0C005B084FEA3202B6EBB5
:101A0000020E75EB030E22BFB61A754640EA5C0063
:101A10005B084FEA3202B6EB020E75EB030E22BFF3
:101A2000B61A754640EA9C005B084FEA3202B6EBF4
:101A3000020E75EB030E22BFB61A754640EADC00B3
:101A400055EA060E18D04FEA051545EA16754FEA15
:101A500006164FEAC30343EA52734FEAC2025FEA33
:101A60001C1CC0D111F4801F0BD141EA00014FF0C2
:101A700000004FF0004CB6E711F4801F04BF014393
:101A80000020B4F1FD0C88BFBCF5E06F3FF6AFAEAF
:101A9000B5EB030C04BFB6EB020C5FEA500C50F13F
:101AA000000041EB045170BD0EF0004E4EEA1131C2
:101AB00014EB5C04C2BFD4EB0C0541EA045170BDC9
:101AC00041F480114FF0000E013C90E645EA060E0D
:101AD0008DE60CEA135594EA0C0F08BF95EA0C0F3B
:101AE0003FF43BAF94EA0C0F0AD150EA01347FF483
:101AF00034AF95EA0C0F7FF425AF104619462CE75A
:101B000095EA0C0F06D152EA03353FF4FDAE1046BC
:101B1000194622E750EA410618BF52EA43067FF40D
:101B2000C5AE50EA41047FF40DAF52EA43057FF49D
:101B3000EBAE12E770B50E4B0E4DED1AAD10002452
:101B40001E46AC4204D056F8242090470134F8E7F2
:101B500004F096F9084D094BED1AAD1000241E460D
:101B6000AC4204D056F8242090470134F8E770BD09
:101B70008C5E40008C5E4000945E40008C5E4000B5
:101B800002440346934202D003F8011BFAE7704770
:101B9000024B1B680021C3E92A017047180000208E
:101BA00010B50B4B0B4C19680B4BD1F8A820D1F892
:101BB000AC00544303FB0040A2FB03230132034467
:101BC00043F10003C1E92A2323F0004010BD00BF08
:101BD000180000202DF451582D7F954C0CB410B5F1
:101BE0009CB01EAB029106916FF0004104910791E9
:101BF0004FF6FF7153F8042BADF816104FF4027432
:101C000002A90193ADF8144000F042F8029B0022B3
:101C10001A701CB0BDE8104002B070470EB400B599
:101C20009CB04FF40271ADF814106FF000410491B4
:101C300007914FF6FF711DABADF81610084953F828
:101C4000042B029006900868019302A900F020F886
:101C5000029B00221A701CB05DF804EB03B07047C1
:101C600018000020034613F8012B002AFBD1181A94
:101C70000138704710B5034601448B421A4601D122
:101C8000101A10BD14780133002CF6D1F8E70000CB
:101C90002DE9F04FC3B08B4698460B92824601F077
:101CA00027FF00681890FFF7DDFFBBF80C3010909D
:101CB000190615D5DBF8103093B95046402101F0D4
:101CC00029FFCBF80000CBF8100030B90C23CAF87C
:101CD00000304FF0FF3000F06CBF4023CBF81430E1
:101CE00000240025CDE90C45002332AE259627932C
:101CF000269309931B931A930F930B9B1C4613F87F
:101D0000012B1AB90B98251A03D11BE0252AF5D10E
:101D1000F8E7279B0B992B442793269B0133072B2E
:101D200086E82200269301DC083608E05046594632
:101D300025AA02F0FDFE002840F0338732AE0F9A4C
:101D40002A440F922378002B00F0248700230134CB
:101D50008DF877304FF0FF390E931F46651C2478BD
:101D60000B950894089CA4F12002582A00F2848361
:101D7000DFE812F06D0082038203710082038203A8
:101D800082038203820382035B005900820377008F
:101D90007A008203A000A300A300A300A300A30075
:101DA000A300A300A300A300820382038203820393
:101DB000820382038203820382038203D400FF0032
:101DC0008203FF008203820382038203B70082033F
:101DD00082036A0282038203820382038203BA02BD
:101DE00082038203680082038203820382038203E8
:101DF00082038203820382038203CA006500FF001C
:101E0000FF00FF00BA00650082038203BD00820369
:101E10004B026C028B02C70082039D028203BC024C
:101E200082038203D7022B2307E0D8F800500E95D7
:101E3000002D08F1040211DB90460B9C8EE78DF813
:101E400077306FE0AB4C8DF877301B946DE2002B50
:101E500008BF2023F1E747F00107EEE76D420E953A
:101E6000904647F00407E8E70B9C257808952A2D53
:101E700004F1010202D04FF000090BE0D8F8009005
:101E80000B9208F10401B9F1000F8846D5DA4FF042
:101E9000FF39D2E7089DA5F13001092906D80A20AB
:101EA00012F8014B089400FB0919F3E749EAE979B4
:101EB0000B9257E747F08007BFE700240E94089D78
:101EC0000E9CA5F130020A2101FB04240B9A0E940A
:101ED00012F8015B0895A5F130010929E8D80B92A9
:101EE000EDE747F00807A8E747F04007A5E70B9C98
:101EF00022786C2A02D101340B9402E047F01007DB
:101F00009BE747F0200798E7D8F800308DF8A0301D
:101F100000258DF8775008F10408B8E28DF8773085
:101F200047F01007BA0608D508F1070828F007039C
:101F300003F10808D3E900450FE017F0100F08F18E
:101F4000040302D0D8F8004005E0D8F8004017F0AC
:101F5000400F18BF24B2E5179846002C75F1000118
:101F600080F20E822D23644265EB45058DF87730B3
:101F700006E2089C8DF8773008F1070828F007037F
:101F80000A971194D3E90045CDE90C45DDE90C0130
:101F900003F1080802F090FD0128DDE90C0114D1DD
:101FA0000022002303F00CFB10B12D238DF87730B5
:101FB000089D514B514A472DD8BF1A46079227F02A
:101FC00080074FF00309002568E202F075FD58B95B
:101FD0004B4B4C4A089C472CD8BF1A46079227F017
:101FE00080074FF0030958E2B9F1FF3F0AD0089D7E
:101FF00025F02003472B07D1B9F1000F08BF4FF0A0
:10200000010901E04FF00609DDE90C23002B47F43C
:10201000807708DA0D990C98129001F100412D2477
:102020001391199405E0DDE90C45CDE91245002531
:102030001995089D25F02004462C04D0452C05D187
:1020400009F1010503E04D46032301E04D4602235B
:102050008DE828001FAB029320AB039323AB0493BE
:102060005046DDE9122300F048FE472C07900AD1C4
:102070000A98C30707D4239B079D472CC5EB03038E
:10208000099341D12DE0DDF81CC0462CAC4413D19E
:1020900007980378302B0DD1DDE9120100220023CF
:1020A000CDF818C003F082FADDF818C010B9C5F1F8
:1020B00001051F951F9B9C44DDE9120100220023AE
:1020C000CDF818C003F072FADDF818C008B1CDF8E9
:1020D0008CC0239B6345CED25A1C239230221A70A7
:1020E000F7E71F9BDC1C01DB4B456CDD089C023CC9
:1020F00008940CE0FA5C4000EA5C4000EE5C4000B2
:10210000F25C4000F65C4000089D652D42DC1F9BA0
:10211000089C8DF88440013B002B1F93BABF5B42A3
:102120002D222B22092B8DF885201CDD0DF192022A
:102130000A2093FBF0F100FB1133303309291446D8
:1021400002F801390B46F3DC01F1300304F8013DDC
:102150000DF186030DF1930294420BD214F8012B7A
:1021600003F8012BF6E7302213448DF887308DF801
:10217000862022AB099D21AA9A1A9146012D1A9216
:10218000A94403DC0A9D15F0010437D009F10109C7
:10219000002433E0089C662C15D11F9B002B09DD21
:1021A000B9F1000F02D10A9DE80723D509F1010911
:1021B0004B441FE0B9F1000F02D10A9CE10715D58D
:1021C00009F1020316E01F9B099DAB4204DB0A9C48
:1021D000E2070DD5013306E0002B099CD4BFC3F103
:1021E0000203012323446725119503E0012301E045
:1021F00067241194119D1F9C08959946199D15B14E
:102200002D238DF87730002549E117F0200F8DF848
:10221000773008F1040108D00F9CD8F80000E517CA
:1022200022462B46C0E900230CE0FB0606D47D06BF
:1022300004D5D8F800300F9C1C8003E0D8F800309B
:102240000F9D1D60884658E547F0100717F02003E2
:1022500009D008F1070828F00703D3E9004503F186
:102260000808002388E017F0100108F1040207D1E4
:1022700017F0400304D0B8F8004000259046F0E77E
:10228000D8F800400025904676E030237822A84810
:10229000D8F800408DF87830002547F002078DF817
:1022A000792008F104081B900223089264E0434659
:1022B00000251B680793A94508F104088DF877509D
:1022C0000DDB184629464A4601F02EFE002800F094
:1022D000E480079C001B4845B8BF8146DEE00798B4
:1022E000FFF7C0FC8146D9E047F01007BC0608D5CF
:1022F00008F1070828F0070303F10808D3E90045AF
:102300000DE017F0100F08F1040304D1780602D590
:10231000B8F8004001E0D8F80040002598460123B5
:102320002AE0834D8DF877301B95B90608D508F162
:10233000070828F0070303F10808D3E900450DE07A
:1023400017F0100F08F1040304D17A0602D5B8F88B
:10235000004001E0D8F8004000259846FB070AD568
:1023600054EA050007D0302308998DF878308DF8AD
:10237000791047F00207022300228DF8772000E051
:102380000123B9F1000FA8BF27F0800754EA050226
:1023900002D1B9F1000F5AD0012B1FD0022B0DF141
:1023A000C70341D0E10841EA4570E908149015914E
:1023B00004F00702DDE91445303254EA05000793C2
:1023C0001A7003F1FF33EDD1F80707994CD5302A85
:1023D0004AD00793302301F8013C45E0002D08BFA7
:1023E0000A2C05D230348DF8C7400DF1C7043AE00D
:1023F0000DF1C7000A900A990791204629460A2242
:10240000002303F02DF90A9B303203F801292046FE
:102410000A9329460A22002303F022F904460D46B6
:1024200054EA0500E7D11FE004F00F021B9907935F
:102430008A5C03F80129220942EA057029091690ED
:102440001791DDE9164554EA0502EDD10CE033B9E8
:10245000FB0707D542AC302304F8413D03E032AD21
:10246000079501E032AC0794079C4D460DF1C80971
:10247000C4EB0909002412E0089D8DF87730002D87
:1024800000F088838DF8A05000258DF8775028A89B
:102490004FF001092C46079001E005462C469DF8B7
:1024A0007730A945ACBF494629460A910BB10131A5
:1024B0000A9117F00203119302D00A9802300A9091
:1024C00017F08403199340D10E980A99C1EB000CC0
:1024D000BCF1000F39DD174B3360BCF1100F1BDD71
:1024E00010237360279B10332793269B0133072B00
:1024F000269301DC08360CE05046594625AACDF853
:1025000018C002F015FBDDF818C0002840F0498320
:1025100032AEACF1100CDEE7279BC6F804C0634472
:102520002793269B0133072B269305DC08360CE006
:102530000B5D4000CA5C40005046594625AA02F097
:10254000F7FA002840F02D8332AE9DF87730BBB10A
:102550000DF17703336001237360279B01332793C9
:10256000269B0133072B269301DC083608E05046F2
:10257000594625AA02F0DCFA002840F0128332AE58
:10258000119BB3B11EAB336002237360279B0233F0
:102590002793269B0133072B269301DC083608E09E
:1025A0005046594625AA02F0C3FA002840F0F982A5
:1025B00032AE199B802B3CD10E980A99C1EB000CCE
:1025C000BCF1000F35DD9C4B3360BCF1100F1BDDFF
:1025D00010237360279B10332793269B0133072B0F
:1025E000269301DC08360CE05046594625AACDF862
:1025F00018C002F09DFADDF818C0002840F0D18222
:1026000032AEACF1100CDEE7279BC6F804C0634481
:102610002793269B0133072B269301DC083608E01D
:102620005046594625AA02F083FA002840F0B982A4
:1026300032AEC9EB0505002D2EDD7F4B3360102D2A
:1026400016DD10237360279B10332793269B0133DD
:10265000072B269301DC083608E05046594625AA88
:1026600002F066FA002840F09C8232AE103DE4E7AA
:10267000279B75601D44269B27950133072B2693C6
:1026800001DC083608E05046594625AA02F050FA07
:10269000002840F0868232AEFD0505D4079C279BBA
:1026A00086E810024B44DAE0089D652D40F3A781CF
:1026B000DDE90C010022002302F078FF002859D048
:1026C0005E4B336001237360279B01332793269B66
:1026D0000133072B269301DC083608E050465946A3
:1026E00025AA02F025FA002840F05B8232AE1F9B3B
:1026F000099CA34202DBFC0740F10282109C279B4D
:10270000189D356023442793269B74600133072B63
:10271000269301DC083608E05046594625AA02F007
:1027200007FA002840F03D8232AE099D6C1E002C55
:1027300040F3E681404B3360102C16DD10237360AC
:10274000279B10332793269B0133072B269301DC0D
:10275000083608E05046594625AA02F0E9F9002853
:1027600040F01F8232AE103CE4E7279B74601C44AB
:10277000279434E11F9B002B73DC304B3360012323
:102780007360279B01332793269B0133072B2693E6
:1027900001DC083608E05046594625AA02F0C8F97F
:1027A000002840F0FE8132AE1F9B23B9099C14B96A
:1027B000F80740F1A581109C279B189D35602344A4
:1027C0002793269B74600133072B269301DC083680
:1027D00008E05046594625AA02F0AAF9002840F020
:1027E000E08132AE1F9C6442002C32DD124B33601C
:1027F000102C16DD10237360279B10332793269B24
:102800000133072B269301DC083608E05046594671
:1028100025AA02F08DF9002840F0C38132AE103CA9
:10282000E4E7279B74601C44269B27940133072B05
:10283000269305DC08360CE0DA5C40001C5D4000A5
:102840005046594625AA02F073F9002840F0A981A4
:1028500032AE079D099C35607460279B2344279303
:10286000BDE00998079D8146A145A8BFA146B9F1E1
:10287000000F054415DD279B07994B442793269BA2
:102880000133072B86E80202269301DC083608E0B4
:102890005046594625AA02F04BF9002840F08181A4
:1028A00032AE29EAE979C9EB0409B9F1000F31DD4B
:1028B0009A4B3360B9F1100F17DD10237360279B1B
:1028C00010332793269B0133072B269301DC083610
:1028D00008E05046594625AA02F02AF9002840F09F
:1028E000608132AEA9F11009E2E7279BC6F8049097
:1028F0004B442793269B0133072B269301DC083694
:1029000008E05046594625AA02F012F9002840F086
:10291000488132AE1F9B0998079A8342144401DB19
:10292000F90716D5109A279B1899316013442793FD
:10293000269B72600133072B269301DC083608E0E2
:102940005046594625AA02F0F3F8002840F02981A4
:1029500032AE1F9B09982D1BC31A9D42A8BF1D466E
:10296000002D14DD279B2B442793269B0133072B37
:1029700086E83000269301DC083608E050465946C8
:1029800025AA02F0D5F8002840F00B8132AE1F9B3B
:10299000099C25EAE575E31A5D1B002D40F3B08024
:1029A0005E4B3360102D16DD10237360279B1033B0
:1029B0002793269B0133072B269301DC083608E07A
:1029C0005046594625AA02F0B3F8002840F0E980A5
:1029D00032AE103DE4E7279B75601D442795269B8A
:1029E0000133072B269340F38A805046594625AA87
:1029F00002F09EF8002840F0D48032AE80E0099DBD
:102A0000012D01DCFA076DD501237360279B079C1C
:102A1000346001332793269B0133072B269301DC77
:102A2000083608E05046594625AA02F081F80028E9
:102A300040F0B78032AE109C279B189D3560234430
:102A40002793269B74600133072B269301DC0836FD
:102A500008E05046594625AA02F06AF8002840F0DE
:102A6000A08032AEDDE90C010022002302F09EFDC1
:102A7000099D6C1E40B9079D6B1C86E81800279BBA
:102A8000099C013B234433E0002C34DD234B3360AD
:102A9000102C15DD10237360279B10332793269B82
:102AA0000133072B269301DC083607E050465946D0
:102AB00025AA02F03DF8002873D132AE103CE5E7BC
:102AC000279B74601C442794269B0133072B269375
:102AD00010DD5046594625AA02F02AF8002860D198
:102AE00032AE08E001237360279B079D35600133F8
:102AF0002793E9E7083621AB33601A9CACE6083629
:102B00007B070DD40F9D0A980E9C279BA042ACBF5B
:102B10002D182D190F95002B37D030E0DA5C4000CE
:102B20000E9D0A982C1A002CECDD234B3360102CE0
:102B300014DD10237360279B10332793269B0133EA
:102B4000072B269301DC083606E05046594625AA95
:102B500001F0EEFF28BB32AE103CE6E7279B746025
:102B60001C44269B27940133072B2693CADD50462D
:102B7000594625AA01F0DCFF0028C3D011E05046D9
:102B8000594625AA01F0D4FF58B90023269332AE46
:102B9000FFF7B3B8279B23B15046594625AA01F049
:102BA000C7FFBBF80C300F9813F0400F18BF4FF061
:102BB000FF3043B0BDE8F08FCA5C4000024B13B158
:102BC000024800F005B87047000000005938400086
:102BD000014600200246034602F018BC0000000037
:102BE0002DE9F74F03690C69A3428046C0F281804A
:102BF000013C01F11407A20000F114059146009276
:102C000057F824602A44019255F824200136B2FB7B
:102C1000F6F6B944002E3AD04FF0000E3A46284658
:102C2000F34652F804CB03681FFA8CFA4FEA1C4CA7
:102C30000AFB06EA0CFB06FC0CEB1A4C1FFA8AFA9C
:102C4000CAEB0B0A4FEA1C4E1FFA8CFC1AFA83FAE5
:102C5000CCEB134C0CEB2A4C1FFA8AFA4AEA0C4ACA
:102C60004A454FEA2C4B40F804ABDAD9009AAB58EE
:102C70006BB9019A131FAB421A4602D8C8F810402C
:102C800005E01268043B002AF8D1013CF3E7404616
:102C900001F0ABFB00282ADB01362B46002057F859
:102CA00004CB1A681FFA8CF1411A4FEA1C4C11FA36
:102CB00082F1CCEB124202EB214289B210144F4553
:102CC00041EA024243F8042BE9D955F8242005EBE8
:102CD000840362B9043BAB421A4602D8C8F81040DC
:102CE00005E01268043B002AF8D1013CF3E73046C6
:102CF00000E0002003B0BDE8F08F2DE9F04F016C3B
:102D00009BB08246279CCDE9042351B1436C4B60B4
:102D1000012202FA03F38B6001F062F90023CAF882
:102D200040300598002805DA012320F00041236097
:102D3000059101E000232360059F9B4A27F0004393
:102D40001B0D1B0593421DD1269A42F20F7313608F
:102D5000049B43B9954B964AC7F3130000280CBF58
:102D60001046184600E09148289F002F00F06D851E
:102D7000C37813B100F1080300E0C31C289F3B6037
:102D800000F063BDDDE9044500222046294600230A
:102D900002F00CFC804658B1269F01233B60289F1F
:102DA000002F00F04F8583483860013800F04DBD9A
:102DB00019AB009318AB0193504622462B4601F005
:102DC00004FCC7F30A5683465EB1C5F3130343F010
:102DD0007F51204641F44011A6F2FF36CDF85480D1
:102DE0001CE0199B189E1E446FF482639E4209DB0F
:102DF00004991F3306F212409B1B21FA00F09F40FA
:102E0000384304E06C48049A801B02FA00F0FEF795
:102E100009FC0127A1F1F871013E15970022674BCB
:102E2000FEF7C2FA5AA3D3E90023FEF771FC5AA3B6
:102E3000D3E90023FEF7BAFA044630460D46FEF702
:102E400001FC57A3D3E90023FEF762FC02460B46C0
:102E500020462946FEF7AAFA04460D4602F0D8FBA2
:102E60002946814600222046002302F0A9FB58B1E2
:102E70004846FEF7E7FB02460B462046294602F08D
:102E800095FB08B909F1FF39B9F1160F0DD84C4B74
:102E900003EBC903D3E90001DDE9042302F0AEFB33
:102EA00030B109F1FF39002700E00127149700E055
:102EB0001490189B9E1B013E0A9604D577420897F2
:102EC00000270A9701E000270897B9F1000F07DBF8
:102ED0000A9FCDF844904F440A9700270E9708E0C8
:102EE000089FC9EB07070897C9F100070E9700274D
:102EF0001197249F092F28D8052FC4BF043F24977A
:102F0000249FA7F10203CCBF00240124032B21D866
:102F1000DFE803F0060F0204012702E0012709E0C1
:102F200000270F97259F002F1EDD0B9707973B4625
:102F30001FE000270F97259F4F440B9701373B4613
:102F40000797012BB8BF012313E001240027249722
:102F50000F9401E001270F974FF0FF370B9707976A
:102F600000271223259704E001270B9707973B467C
:102F700025970022CAF84420042202F11401994244
:102F800020D8DAF844100131CAF844105200F4E7AE
:102F900061436F63A787D23FB3C8608B288AC63F5F
:102FA000FB799F501344D33F0000F07F275D400022
:102FB0001E5D40001D5D4000EEFBFFFF0000F83F7E
:102FC000485D40005046DAF8441000F0E3FF079FE8
:102FD00009900E2FCAF8400000F26A81002C00F020
:102FE0006781DDE90401B9F1000FCDE9120131DD9E
:102FF000804A09F00F0302EBC303D3E900014FEA53
:103000002914CDE90C01E0060CD57B4BDDE912015A
:10301000D3E90823FEF7A6FC04F00F04CDE9040170
:10302000032700E00227744D6CB1E10708D5DDE904
:103030000C01D5E90023FEF76BFBCDE90C0101374C
:1030400064100835F0E7DDE90401DDE90C23FEF743
:1030500089FC1BE0C9F10004DCB1664B664D04F04D
:103060000F0203EBC203DDE91201D3E90023FEF7EF
:103070004FFB241102274CB1E20704D5D5E9002308
:103080000137FEF745FB64100835F4E7CDE904018C
:1030900000E002271499E9B1DDE904450022204649
:1030A0002946564B02F08CFAC8B1079AE2B10B9B45
:1030B000002B40F3F98009F1FF301090294620469B
:1030C00000224F4BFEF724FBCDE904010B990C9134
:1030D00001370DE0079ACDF840900C9208E0079B6D
:1030E000CDF840900C9303E00798CDF840900C90F9
:1030F0003846FEF7A7FADDE90423FEF709FB0022B4
:10310000404BFEF753F90C9F0446A1F15075CFB91F
:1031100000223D4BDDE90401FEF746F922462B462D
:1031200006460F4602F06AFA002840F05282224614
:1031300005F100433046394602F042FA002840F0DB
:103140003E82B1E00C9F2B4B7A1E0F9F03EBC20314
:10315000002F5DD0D3E9002300202C49FEF702FCAC
:1031600022462B46FEF720F9DDE90467DDF82480CE
:1031700004460D463946304602F04AFA0290FEF700
:1031800061FA02460B4630463946FEF70DF9DDF886
:1031900008C00CF1300308F8013B22462B460646D6
:1031A0000F4602F00DFA002840F03A8332463B46C3
:1031B00000201249FEF7F8F822462B4602F000FAEA
:1031C000002840F0D48009980C99C0EB08038B428A
:1031D0006ADA204629460022094BFEF799FA0022B6
:1031E00004460D4630463946054BFEF791FA064631
:1031F0000F46BFE7485D4000385E40000000F03FEA
:103200000000244000001C40000014400000E03F8B
:103210002246D3E900012B46FEF77AFADDF8248036
:103220000C9A099CCDE91601DDE904679044394602
:10323000304602F0EDF90546FEF704FA3035024655
:103240000B4630463946FEF7AFF804F8015B4445BB
:1032500006460F4621D10022874BDDE91601FEF715
:10326000A5F802460B463046394602F0C7F9002859
:103270007DD1DDE9162300207F49FEF795F802464F
:103280000B463046394602F09BF968B1A046013C36
:1032900018F8013C302BF9D0C2E20022774BFEF740
:1032A00037FA06460F46C2E7DDE91201CDE904010F
:1032B000199B002B7CDBB9F10E0F79DC704B259F3D
:1032C00003EBC903002FD3E9004514DA079F002F51
:1032D00011DC40F07681204629460022694BFEF73A
:1032E00017FADDE9042302F07FF9079D2C46002838
:1032F00040F0698171E1DDE90467DDF82480224650
:103300002B4630463946FEF72DFB02F081F904903A
:10331000FEF798F922462B46FEF7FAF902460B46CD
:1033200030463946FEF740F8049F07F1300608F8AA
:10333000016B099FC7EB0806079FBE4202460B467A
:1033400029D1FEF733F822462B4606460F4602F0F7
:1033500055F970B93046394622462B4602F026F917
:10336000002800F05F82049FFB0702D45AE2DDF8D8
:10337000409043469846013B18F8012C392A06D163
:10338000099F9F42F6D1302209F101093A701A785B
:1033900001321A7046E20022384BFEF7B9F90022DA
:1033A000002306460F4602F001F90028A7D039E2B3
:1033B0000F9F002F30D0249F012F0ADC159F17B1DB
:1033C00003F2334302E0189BC3F136030E9D089EBF
:1033D00016E0079F7D1E0E9FAF4201DB7D1B06E0BE
:1033E0000E9F0E95EB1B119F1F4411970025079F01
:1033F000002F03DA08980023C61B01E0089E079BF4
:10340000089F1F4408970A9F50461F4401210A97AE
:1034100000F0B8FE044602E00E9D089E0F9C6EB1BF
:103420000A9F002F0ADD3B46089FB342A8BF3346E0
:10343000FF1A08970A9FFF1AF61A0A970E9F002F85
:1034400028DD0F9F07B3002D10DD21462A46504688
:1034500000F039FF04465A462146504600F09BFED4
:1034600059460746504600F0BBFDBB460E9F7A1BEF
:1034700010D0504659460AE00000E03F00002440CA
:10348000485D4000000014400E9A5046594600F036
:103490001AFF83465046012100F074FE119F002F51
:1034A000054605DD294650463A4600F00CFF054624
:1034B000249F012F12DC049880B90599C1F31303EE
:1034C00073B921F000473F0D3F0557B1089F013701
:1034D00008970A9F01370A97012702E0002700E0BA
:1034E000049F119840B12B6905EB8303186900F024
:1034F000FCFDC0F1200000E001200A9B034413F012
:103500001F030FD0C3F12002042A09DD08990A9A8B
:10351000C3F11C0319441A4408911E440A9209E09D
:1035200008D0134608980A991C3318441944089087
:103530001E440A91089A002A04DD5946504600F0BC
:1035400001FF83460A9B002B05DD294650461A469B
:1035500000F0F8FE05461498E0B15846294600F000
:1035600044FF002816DA594650460A22002300F08C
:1035700040FD0F9909F1FF39834649B121460A22DE
:103580005046002300F035FD0B9A0792044601E0F7
:103590000B9B07930798002829DC2499022926DD34
:1035A00088B929460522079B504600F022FD0546B2
:1035B0002946584600F019FF00280EDC03E00C9D58
:1035C00000E000252C46259FDDF824806FEA0709DE
:1035D0000AE00C9DDDF840902C46099F312307F14D
:1035E00001083B7009F101092746002407E10F9803
:1035F000002800F0BB80002E05DD214650463246F3
:1036000000F0A0FE04469FB16168504600F0C2FC85
:1036100022690232064604F10C0192000C3000F0DF
:1036200092FC50463146012200F08CFE074600E035
:103630002746099E29465846FFF7D2FA214600F14F
:10364000300C80465846CDF808C000F0CEFE3A4611
:1036500008902946504600F0E5FEC368DDF808C032
:1036600002464BB911465846039200F0BEFE039A3B
:10367000DDF808C0034600E00123504611460393DD
:10368000CDF808C000F0ACFC039BDDF808C063B9BE
:10369000249951B9049800F0010232B9BCF1390FF4
:1036A00035D0089B002B24DC25E00898002802DA9E
:1036B000002B08DC1FE023D1249909BB049800F0FB
:1036C0000102EAB9F4E7594601225046CDF808C094
:1036D00000F038FE2946834600F087FE0028DDF81A
:1036E00008C003DC07D11CF0010F04D0BCF1390F76
:1036F0000DD008F1310C06F1010886F800C07EE01B
:10370000002B06F1010809DDBCF1390F03D1392383
:10371000337001365BE00CF1010368E00999079A08
:103720004646C1EB0803934206F801CC3CD059460B
:103730000A220023504600F05CFCBC42834621462E
:1037400050464FF00A024FF0000304D100F051FC44
:10375000044607466EE700F04CFC394604460A2250
:103760005046002300F045FC074663E70F9E58468D
:103770002946FFF735FA099F00F1300C07F806C01B
:10378000079F0136BE4207DB099E012FACBFF61929
:1037900001362746002407E0594650460A220023F6
:1037A00000F027FC8346E2E7594601225046CDF857
:1037B00008C000F0C7FD2946834600F016FE002829
:1037C000DDF808C003DC14D11CF0010F11D016F88D
:1037D000013C392BB04606F1FF3607D10998B042BB
:1037E000F5D1312309F10109037008E00133337089
:1037F00005E0B046013E18F8013C302BF9D05046A8
:10380000294600F0EDFB6FB12CB1BC4203D050460D
:10381000214600F0E5FB5046394600F0E1FB01E0AF
:10382000DDF840905046594600F0DAFB0023269F11
:1038300088F8003009F101033B60289F27B1C7F8E1
:10384000008001E0024800E009981BB0BDE8F08F5D
:103850001C5D4000AFF3008038B5084D084C641B78
:10386000A41005EB840524B155F8043D013C9847AC
:10387000F9E7BDE8384002F00DBB00BFA05E400094
:10388000A45E4000F8B5234D0E46044600F07FFBD1
:10389000AB685F6827F00307BE1B06F6EF7626F4D9
:1038A0007F6626F00F06A6F58056B6F5805F04DA2F
:1038B000204600F06DFB0020F8BD2046002101F0FD
:1038C0001DF9AB683B449842F2D12046714201F0A9
:1038D00015F9013010D12046002101F00FF9AB6835
:1038E000C21A0F2AE4DD0C490968401A0B4942F05C
:1038F000010208605A60DBE7AB68BF1B47F00107B5
:103900005F60064B1A682046961B1E6000F040FB65
:103910000120F8BDC4040020CC080020700900205C
:10392000F8B506460D46002900F0A98000F02FFBEF
:1039300055F804CC524CA5F108032CF0010298185C
:10394000A1684768884227F003070CF001011BD1EA
:103950003A4439B955F8081C5B1A0A449868D96882
:10396000C160886042F001015960A360454B1B684B
:103970009A4204D3444B30461968FFF783FF304620
:10398000BDE8F84000F004BB476079B955F8085C21
:103990005B1B2A449D6804F1080C654508D0D3F8E8
:1039A0000CC0C5F80CC0CCF8085002E0002100E0C3
:1039B0000121C5196D68ED070ED43A44856841B9F7
:1039C000324FBD4205D1636123610121DD609D60FD
:1039D00002E0C068E860856042F0010058609A50DB
:1039E0000029CCD1B2F5007F0ED2D208911001206F
:1039F000884061680143616004EBC204A2689A6078
:103A0000DC60A360D360BAE7510A042902D89109A7
:103A1000383115E0142901D85B3111E0542902D85E
:103A2000110B6E310CE0B1F5AA7F02D8D10B7731C2
:103A300006E040F2545081429ABF910C7C317E21C5
:103A400004EBC1040E48A568A54201D029460BE04D
:103A50000122891002FA01F142680A4342602946B4
:103A600008E08968A14204D0486820F0030082423F
:103A7000F7D3CD68DD609960AB60CB607FE7F8BDC0
:103A8000C4040020D00800206C090020CC040020D1
:103A900010B514460AB90B4810BD10460A4901F08A
:103AA0003DF80028F7D02046064901F037F80028F5
:103AB000F1D02046054901F031F80028014818BF2F
:103AC000002010BDC85C40002B5D4000325D40000E
:103AD0000048704748040020014B186A704700BF37
:103AE00048040020004870476C0400200020704704
:103AF000004870478C0400200A46034903460868C2
:103B00001946FFF7C5BF00BF1800002000487047E6
:103B10008C0400202DE9F74F01F10B04162C074609
:103B200003D934F0070401D502E010248C4202D2FC
:103B30000C233B60E0E1384600F029FAB4F5FC7F45
:103B4000A44D14D2E20805EBC203DE689E4206D102
:103B500006F1080376699E4208BF023243D07368BB
:103B6000F268B16823F00303CA6091605DE0620A05
:103B70001AD0042A02D8A209383218E0142A01D82F
:103B80005B3214E0542A02D8220B6E320FE0B2F5F9
:103B9000AA7F02D8E20B773209E040F254539A42EE
:103BA00004D8A20C7C3202E03F2200E07E2205EB2A
:103BB000C203DE689E4215D0716821F00301081B24
:103BC0000F2801DD013A0DE0002809DBF368B26837
:103BD000D3609A6073185A6842F001025A6096E105
:103BE000F668E7E701327B492E6901F10800864259
:103BF00086466DD0736823F00303C4EB030CBCF15D
:103C00000F0F0DDD33194CF0010244F00104746014
:103C10004B610B61D86098605A6043F80CC076E144
:103C2000BCF1000F4861086101DB3344D3E7B3F511
:103C3000007F11D2DB0898104FF0010C0CFA00FC49
:103C400048684CEA0000486001EBC3018B68B36030
:103C5000F1608E60DE603BE0580A042802D89809C3
:103C6000383015E0142801D85B3011E0542802D810
:103C7000180B6E300CE0B0F5AA7F02D8D80B773065
:103C800006E040F2545188429ABF980C7C307E2066
:103C900005EBC00CDFF83C81DCF8081061450DD164
:103CA0000123801003FA00F0D8F804300343C8F869
:103CB00004300B4608E08968614504D0486820F06C
:103CC00003008342F7D3CB68F360B1609E60CE609F
:103CD0000121931001FA03F369688B425ED80B420D
:103CE00006D122F003025B000B4202F10402FAD07B
:103CF00005EBC20080469446D8F80C6046452DD0AE
:103D0000716821F00309C4EB09010F2913DD331990
:103D100044F00104F268746056F8080FC2609060C5
:103D200041F001026B612B61C3F80CE0C3F808E0BD
:103D30005A6059500CE000290EDB06EB09014B6874
:103D400043F001034B60F36856F8082FD3609A6084
:103D5000384600F01DF9DEE0F668CFE70CF1010C03
:103D60001CF0030F08F10808C6D1910704D16A6856
:103D700022EA03026A6006E0A0F1080100688842B6
:103D800002F1FF32F1D069685B008B4206D82BB19B
:103D900062460B42ACD104325B00FAE7D5F80890DA
:103DA000D9F8043023F0030BA34504D3C4EB0B0371
:103DB0000F2B00F3A38008490A6804EB020AD5F828
:103DC0000824013209EB0B03884607D10AF1100AD7
:103DD0000CE000BFC40400206C0900200AF5805AE2
:103DE0000AF10F0A2AF47F6A2AF00F0A3846514670
:103DF000019300F083FE421C0646019B6FD098425F
:103E000001D2A9456BD1D8F804209E425244C8F88B
:103E1000042008D1C6F30B0129B9AB68DA444AF093
:103E200001025A604DE0D5F80814013103D13C4B32
:103E3000C3F8086403E0F31A1A44C8F8042016F023
:103E400007031CBFC3F10803F618B24403F58053FF
:103E5000CAF30B0ACAEB030A5146384600F04EFE7D
:103E6000431C04BF30464FF0000AD8F80430AE605F
:103E7000801B5044534440F00100A945C8F8043069
:103E800070601ED0BBF10F0F02D80123736026E0D3
:103E9000D9F80430ABF10C0B2BF0070B03F0010346
:103EA0004BEA0303C9F8043009EB0B030522BBF10D
:103EB0000F0F5A609A6004D9384609F10801FFF7DC
:103EC0002FFDD8F80430D8F82C20934284BF154A2F
:103ED000D362D8F83020934284BF124A1363AB6890
:103EE0005A6822F00302A242C4EB020301D30F2B53
:103EF00004DC384600F04CF800260CE0AE6844F0D4
:103F00000102344443F001037260AC6063603846E0
:103F100000F03EF80836304603B0BDE8F08F00BF31
:103F2000C40400206C09002010B5C9B202449042BC
:103F3000034606D01C788C4200F10100F7D11846E8
:103F400010BD002010BD10B50023934203D0CC5CFF
:103F5000C4540133F9E710BD814270B501D3002389
:103F60000EE08C18A042FAD28518134613F1FF33E5
:103F700005D3514266182944F65CCE54F6E770BD6D
:103F8000934203D0CC5CC4540133F9E770BD704751
:103F900070470000C36C70B505460C463BB1EA6C37
:103FA00052F8240060B1016842F8241014E00421A2
:103FB000212201F077FAE8640028F0D1002070BDDA
:103FC000012101FA04F6721D2846920001F06AFAF6
:103FD0000028F3D04460866000220261C26070BD98
:103FE00031B1C36C4A6853F82200086043F82210CC
:103FF00070472DE9F0410C461E460D690746143105
:10400000002308681FFA80FC000C02FB0C6C504374
:1040100000EB1C4001331FFA8CFC060CAB420CEB8E
:10402000004041F8040BECDBD6B1A3689D4212DBE3
:10403000616838460131FFF7ADFF2269023204F1B1
:104040000C01804692000C30FFF77DFF2146384678
:10405000FFF7C6FF444604EB850301355E61256129
:104060002046BDE8F0812DE9F8431446984603F157
:10407000080209230D4692FBF3F2064601230021B4
:104080009A4202DD5B000131FAE73046FFF782FF1A
:10409000089B4361092C4FF001030146036111DDC8
:1040A00005F109094F46254417F8013B30460A221D
:1040B000303BFFF79EFFAF420146F5D109EB040705
:1040C000083F02E005F10A0709242546454509DABB
:1040D0003B1B30465B5D0A22303BFFF78AFF013510
:1040E0000146F3E70846BDE8F883030C1B0413B947
:1040F0000004102300E0002310F07F4F04BF0002F3
:10410000083310F0704F04BF0001043310F0404F2B
:1041100004BF80000233002803DB420003D5581C93
:1041200070471846704720207047036813F0070255
:104130000BD0D90722D49A0703D55B08036001206E
:1041400070479B0803600220704799B209B91B0CA5
:10415000102213F0FF0F04BF1B0A0832190704BF17
:104160001B090432990704BF9B080232D90702D405
:104170005B0805D00132036010467047002070478D
:104180002020704710B50C460121FFF703FF0122E4
:104190004461026110BD2DE9F04F16460A6933698A
:1041A0009A4285B00D4601DA35460E46D5F81080A4
:1041B0003769AB68696808EB07049C42C8BF0131E6
:1041C000FFF7E8FE00F1140303EB840101911A46A6
:1041D000DDF804A0524503D2002142F8041BF7E7A2
:1041E00005F1140106F1140201EB880802EB8707C0
:1041F000CDF808800397039EB242154656D2B5F813
:1042000000C00432BCF1000F25D00F461D46002629
:1042100057F8049BD5F800801FFA89FB1FFA88FA2B
:104220000CFB0BAA4FEA19494FEA1848B2440CFBA1
:10423000098808EB1A481FFA8AFA4AEA084A4FEA3C
:104240001846DDF80880AB46B8454BF804AB01D9F9
:104250005D46DDE76E6032F8028CB8F1000F23D0C6
:104260001E680F461D464FF00009B7F800A0B5F8CC
:1042700002C008FB0ACCE144B6B2AC4646EA0946A5
:104280004CF8046B57F8046BB5F804A0360C08FB27
:1042900006A6DDF808A006EB194657454FEA164971
:1042A00001D26546E1E76E600433A4E7019B002C70
:1042B00003DC046105B0BDE8F08F53F8042D002A3B
:1042C000F7D1013CF3E712F003032DE9F041054675
:1042D0000E46174607D0013B194A52F82320002307
:1042E000FFF787FE0646BF1027D0AC6C74B928468E
:1042F00040F27121FFF746FF0023A86404460360E3
:1043000004E07F1019D0206870B10446FB07F8D58F
:10431000314622462846FFF73EFF31468046284672
:10432000FFF75EFE4646ECE7284621462246FFF7A9
:1043300032FF002320600360E7E73046BDE8F081EC
:10434000385D40002DE9F0470C464FEA621A2369B8
:1043500049680AEB0309A3688046154609F101077D
:104360009F4202DD01315B00FAE74046FFF712FE93
:104370000023064600F11402534504DA002142F8F6
:1043800023100133F8E720692AEAEA7104F11403E3
:1043900015F01F0C02EB810103EB800E16D0CCF15F
:1043A000200A002518680A4600FA0CF0054342F876
:1043B000045B53F8045B734525FA0AF501D21146F4
:1043C000F0E74D6045B109F1020705E053F8042B11
:1043D00041F8042B7345F9D3013F4046376121462C
:1043E000FFF7FEFD3046BDE8F08702690B69D21A7F
:1043F00010B513D19C00143001F1140203192244AA
:1044000053F8044D52F8041D8C4203D008D24FF0EB
:10441000FF3010BD9842F3D3002010BD104610BDF0
:10442000012010BD2DE9F04706460C46084611460E
:104430001546FFF7DAFF071E08D130463946FFF769
:10444000A9FD012303614761BDE8F08701DB002777
:1044500003E0234601272C461D4661683046FFF7DE
:1044600099FD22692B69C760143405F1140606EB27
:10447000830A04EB820C00F11403002154F8047B3E
:1044800056F8049B11FA87F11FFA89F54FEA19498A
:10449000C5EB0108C9EB174707EB28471FFA88F857
:1044A0003914B24548EA0747254643F8047BE5D866
:1044B00065450DD255F8044B11FA84F6240C04EB33
:1044C0002644B6B2211446EA044443F8044BEFE70D
:1044D00053F8041D09B9013AFAE70261BDE8F08713
:1044E0000F4B0B40A3F15073002B01DD194609E07F
:1044F0005B421B15132B4FF0000105DC4FF400222B
:1045000042FA03F100207047322B4FF00102DABF6C
:10451000C3F1330302FA03F313461846704700BF92
:104520000000F07F2DE9F041066900F1140707EB68
:104530008606884656F8044C2046FFF7D6FDC0F1A3
:1045400020030A28A6F10405C8F8003014DCBD4297
:10455000C0F10B0188BF56F8085C24FA01FC98BF33
:10456000002515304CF07F5325FA01F1844043F4C7
:10457000401341EA040224E0BD4286BFA6F10805CB
:1045800056F8081C0021B0F10B0615D0B440C0F15C
:104590002B0044F07F5444F4401421FA00FCBD4247
:1045A00044EA0C038CBF55F8044C002424FA00F0B4
:1045B000B14040EA010204E044F07F5343F4401369
:1045C0000A4610461946BDE8F0812DE9F74301215E
:1045D0001D46DDF82890DDF82C801446FFF7DAFC44
:1045E000C5F30A570646C5F313030FB143F480130E
:1045F0000193D4B102A840F8084D6846FFF795FD35
:10460000009B48B1019AC0F1200102FA01F10B436D
:10461000C2407361019200E07361019BB361002BA2
:104620000CBF01240224346107E001A8FFF77DFDDF
:104630000124019B7361346120303FB1A7F23347FD
:104640000744C9F80070C0F135000AE006EB8403A6
:10465000A0F23240C9F800001869FFF746FDC0EB30
:104660004410C8F80000304603B0BDE8F0832DE9DF
:10467000F3410E4669468046FFF754FF0D46044657
:1046800001A93046FFF74EFF009F0B4601990246F5
:104690007F1AD8F810003169411A07EB411100293F
:1046A000CCBF05EB0155A3EB015320462946FDF78E
:1046B00059F902B0BDE8F081172810B5044605DCB1
:1046C000074B03EBC004D4E9040110BD05490020E9
:1046D0000022054BFDF71CF8013CF9D110BD00BFCD
:1046E000385D40000000F03F0000244010B5013963
:1046F00002F1140349111269013100EB810103EB4E
:104700008202934204D253F8044B40F8044BF8E77A
:10471000884203D2002340F8043BF9E710BD00F1C2
:10472000140200694B11834210B50CDC0CDA11F055
:104730001F0109D052F8230020FA01F404FA01F114
:1047400081420ED100E0034602EB830393421946F7
:1047500005D951F8041C043B0029F7D001E00020E2
:1047600010BD012010BD00BF2DE9F74F81460C465A
:1047700029B9114603B0BDE8F04FFFF7CBB901925C
:10478000FFF705FC019A54F8045C02F10B07162FA1
:10479000A4F1080825F0030603D937F0070701D56F
:1047A00002E01027974204D20C23C9F80030002001
:1047B0007EE1BE4280F25481A249D1F808E008EBC4
:1047C000060373458B46586805D020F00101194453
:1047D0004968C90725D420F00300734500EB0601A2
:1047E00017D107F1100C61451DDB08EB0705C91B4C
:1047F00041F00101CBF80850696054F8043C03F023
:1048000001031F43484644F8047CFFF7C1FB2046E0
:104810004EE1B94207DBDA689B680E46DA609360C6
:104820001EE100200346E90700F1C98054F8085C46
:10483000C5EB0805696821F0030101EB060A002BAE
:1048400000F0888073454BD10AEB000307F110019B
:104850008B427FDBA846EA6858F8081FCA6091605F
:10486000321F242A25D8132A1BD92168A960616820
:10487000E9601B2A03D805F11002083412E0A16890
:104880002961E1686961242A03D005F11802103416
:1048900008E02269AA616169E96105F12002183422
:1048A00000E042462168116061685160A168916032
:1048B00005E0404621460193FFF74EFB019BEA19B4
:1048C000DB1B43F00103CBF8082053606B6803F057
:1048D00001031F4348466F60FFF75AFB4046E7E07D
:1048E0000AEB000BBB4535DBDA689B682846DA60CB
:1048F000936050F8082FEB68D3609A60321F242A27
:1049000023D8132A1AD92368AB606368EB601B2A8B
:1049100003D805F11000083410E0A3682B61E368A8
:104920006B61242A03D005F11800103406E02369D6
:10493000AB616369EB6105F1200018342368036003
:1049400063684360A368836002E02146FFF704FBCD
:104950005E462EE0BA4532DB2846EB6850F8082F59
:10496000D3609A60321F242A25D8132A1AD92368C3
:10497000AB606368EB601B2A03D805F110000834B4
:1049800010E0A3682B61E3686B61242A03D005F172
:104990001800103406E02369AB616369EB6105F12F
:1049A000200018342368036063684360A368836051
:1049B0005646A84654E02146FFF7CEFAF8E74846A7
:1049C0001146FFF7A7F80546002844D054F8043CE8
:1049D00023F00103A0F1080243449A4205D150F8A4
:1049E000043C23F003031E443AE0321F242A2BD850
:1049F000132A1ED923680360636843601B2A04D806
:104A000000F1080304F1080215E0A3688360E3687D
:104A1000C360242A04D000F1100304F110020AE05C
:104A2000236903616169416100F1180304F118020F
:104A300001E0034622461168196051685960926886
:104A40009A6004E0C40400202146FFF785FA484636
:104A50002146FEF765FF4846FFF79AFA284627E009
:104A6000F31B0F2BD8F8042013D908EB070102F031
:104A70000102174343F001020B44C8F804704A6076
:104A80005A6842F001025A6048460831FEF748FF72
:104A900009E002F0010232434644C8F8042073687A
:104AA00043F0010373604846FFF772FA08F108000B
:104AB00003B0BDE8F08F00BF31F0004310B500D166
:104AC00078B10C4AA3F5801494420CD9B3F5801F39
:104AD0000BD3094A93420AD1D0F1010038BF00201C
:104AE00010BD022010BD042010BD032010BD002009
:104AF00010BD00BFFFFFDF7F0000F07F38B5064C20
:104B00000023054608462360FCF72CFA431C02D11B
:104B1000236803B12B6038BDA409002010F8012BD5
:104B200011F8013B012A28BF9A42F7D0D01A7047EA
:104B30002DE9F74F80469068D2F800900C46154654
:104B400018B1002301931E4608E0506066E0D9F8D2
:104B50000030D9F80460019309F10809002EF6D05D
:104B6000A768BE4247D3A28912F4906F41D0236850
:104B70002169C1EB030A6369022003EB430393FB42
:104B8000F0FB0AF101003044834538BF83465305EA
:104B900040460FD55946FEF7BDFF074698B152462D
:104BA0002169FFF7D0F9A28922F4906242F08002D5
:104BB000A28115E05A46FFF7D7FD074680B9404667
:104BC0002169FEF7ADFE0C23C8F80030A38943F03D
:104BD0004003A3810023AB606B604FF0FF301DE00A
:104BE0002761CAEB0B0357442760C4F814B037465B
:104BF000A360BE4200D237463A4620680199FFF7CB
:104C0000ABF9A368DB1BA36023681F44AB68276074
:104C10009E1BAE60002E9AD16E60304603B0BDE898
:104C2000F08F2DE9F04F1E468B89ADB088461906EE
:104C30008346029213D5D8F8103083B94021FEF78D
:104C400069FFC8F80000C8F8100028B90C23CBF899
:104C500000304FF0FF30D6E34023C8F81430002373
:104C60001CAA0F921193109394460A930593029BEA
:104C70001C4613F8012B1AB90298251A03D11DE01E
:104C8000252AF5D1F8E7119B02992B441193109B2B
:104C90000133072B8CE82200109302DC0CF1080C86
:104CA00009E0584641460FAAFFF742FF002840F0AE
:104CB000A2830DF1700C059A2A4405922378002BEB
:104CC00000F09283002201348DF837204FF0FF3A34
:104CD00004921746651C23780295582B65D02EDC6C
:104CE0002E2B77D012DC2A2B67D008DC202B60D04B
:104CF000232B40F0038247F00107029CEAE72B2BAD
:104D000001D11A46F9E72D2B61D0F7E1392B08DCE8
:104D1000312B80F28180302B40F0F08147F080070A
:104D2000EBE74F2B00F0E180552B00F02181442B65
:104D300040F0E4818DF8372047F0100795E06E2BA6
:104D400000F0B7800DDC682B77D005DC632B00F01A
:104D50008480642B26D0D1E1692B23D06C2B6FD0BB
:104D6000CCE1712B76D013DC6F2B00F0C080702B60
:104D700040F0C48130238DF83830A04834680A9060
:104D80007823002547F002078DF8393004362FE1EB
:104D9000752B00F0EF80782B00F00481732B40F02E
:104DA000AD81C0E08DF837205FE08DF83720944C5E
:104DB000FBE0002A08BF20229FE7331D36680496D7
:104DC000002E01DB1E4698E7754204951E4647F00B
:104DD000040792E7029C23782A2B04F1010102D0F8
:104DE0004FF0000A0AE0D6F800A00291331DBAF194
:104DF000000F1E4681DA4FF0FF3A7EE7A3F1300044
:104E0000092805D80A2303FB0A0A11F8013BF5E734
:104E10004AEAEA7A029160E700250495049C303B57
:104E20000A2101FB04340299049411F8013BA3F117
:104E300030000928EED80291F0E747F040075CE720
:104E4000029D2B786C2B02D10135029502E047F0D0
:104E5000100752E747F020074FE733688DF84830D6
:104E600000258DF83750043652E1BA0607D50736CB
:104E700026F0070303F10806D3E900450DE017F01B
:104E8000100F06F1040301D0346804E0346817F011
:104E9000400F18BF24B2E5171E46002C75F1000024
:104EA00080F2B0802D23644265EB45058DF83730E4
:104EB000A8E017F0200F8DF8372006F1040107D085
:104EC000059C3068E51722462B46C0E900230AE01E
:104ED000FB0605D47F0603D53368059C1C8002E0E1
:104EE0003368059D1D600E46C1E647F0100717F0B8
:104EF000200308D0073626F00703D3E9004503F165
:104F00000806002375E017F0100106F1040206D12F
:104F100017F0400303D0348800251646F1E73468C3
:104F20000025164665E0D6F8009000239A4506F164
:104F300004068DF83730484611DB19465246CDF845
:104F400004C0FEF7F1FFDDF804C0002800F0E580A2
:104F5000C9EB00005045B8BF82460025DEE0CDF821
:104F600004C0FCF77FFE00258246DDF804C0D5E0D2
:104F700047F01007BD0607D5073626F0070303F1F3
:104F80000806D3E900450BE017F0100F06F1040303
:104F900003D17C0601D5348800E0346800251E4624
:104FA000012326E0154C8DF83720B8060A9407D562
:104FB000073626F0070202F10806D2E900450BE0A9
:104FC00017F0100F06F1040203D1790601D53488D9
:104FD00000E0346800251646FA0709D554EA0500B2
:104FE00006D030228DF838208DF8393047F002078E
:104FF000022300228DF8372005E000BF0B5D400042
:10500000FA5C40000123BAF1000FA8BF27F0800727
:1050100054EA050102D1BAF1000F5ED0012B1FD076
:10502000022B0DF16F0345D0E00840EA4571E80816
:105030000691079004F00702DDE90645303254EA94
:10504000050199461A7003F1FF33EDD1F80749467F
:105050004ED5302A4CD09946302301F8013C47E028
:10506000002D08BF0A2C05D230348DF86F400DF1A9
:105070006F093DE00DF16F020392204629460A2296
:105080000023CDF804C000F0EBFA039BDDF80C9090
:10509000303203F801292046039329460A220023CF
:1050A00000F0DEFA04460D4654EA0500DDF804C0BF
:1050B000E3D11DE004F00F020A998A5C994603F8D7
:1050C0000129220942EA0570290908900991DDE9C0
:1050D000084554EA0502EDD10AE03BB9F90705D5C8
:1050E0000DF1B009302309F8413D01E00DF17009DF
:1050F00055460DF1700AC9EB0A0A0FE08DF837200A
:10510000002B00F0718100258DF848308DF8375064
:105110004FF0010A0DF1480900E005469DF83730CF
:10512000AA45ACBF54462C4603B1013417F0020324
:10513000039318BF023417F084030B933BD10498F8
:10514000031B002B37DDA64ACCF80020102B1BDDFB
:105150001022CCF80420119A10321192109A0132C8
:10516000072A109202DC0CF1080C0BE0584641466D
:105170000FAA0193FFF7DCFC019B002840F03B8164
:105180000DF1700C103BDEE7119ACCF8043013449B
:105190001193109B0133072B109302DC0CF1080CC8
:1051A00009E0584641460FAAFFF7C2FC002840F02C
:1051B00022810DF1700C9DF83730DBB10DF1370312
:1051C000CCF800300123CCF80430119B013311934B
:1051D000109B0133072B109302DC0CF1080C09E043
:1051E000584641460FAAFFF7A3FC002840F0038170
:1051F0000DF1700C039BD3B10EABCCF80030022341
:10520000CCF80430119B02331193109B0133072B10
:10521000109302DC0CF1080C09E0584641460FAA35
:10522000FFF786FC002840F0E6800DF1700C0B9B28
:10523000802B3FD1049B1B1B002B03933ADD039B68
:10524000102B684BCCF800301BDD1023CCF8043059
:10525000119B10331193109B0133072B109302DC29
:105260000CF1080C09E0584641460FAAFFF760FC14
:10527000002840F0C0800DF1700C039B103B03939D
:10528000DDE7039BCCF804300398119B0344119392
:10529000109B0133072B109302DC0CF1080C09E082
:1052A000584641460FAAFFF743FC002840F0A38070
:1052B0000DF1700CCAEB0505002D34DD494BCCF81F
:1052C0000030102D19DD1023CCF80430119B103361
:1052D0001193109B0133072B109302DC0CF1080C87
:1052E00009E0584641460FAAFFF722FC002840F08B
:1052F00082800DF1700C103DE0E7119BCCF804505A
:105300001D44109B11950133072B109302DC0CF107
:10531000080C08E0584641460FAAFFF709FC002890
:1053200069D10DF1700C119B53441193109B013303
:10533000072B8CE80006109302DC0CF1080307E051
:10534000584641460FAAFFF7F3FB002853D11CAB88
:105350007A070AD4059D0498119B8442ACBF2D198D
:105360002D180595002B35D02EE004990D1B002D2E
:10537000F0DD1B4A1A60102D15DD10225A60119ABB
:1053800010321192109A0132072A109201DC083370
:1053900007E0584641460FAAFFF7CAFB00282AD16A
:1053A0001CAB103DE5E75D60119B1D44109B119502
:1053B0000133072B1093CDDD584641460FAAFFF766
:1053C000B7FB0028C6D016E0584641460FAAFFF7A3
:1053D000AFFB80B9002310930DF1700C47E400BFC0
:1053E000605E4000705E4000119B23B1584641460C
:1053F0000FAAFFF79DFBB8F80C30059813F0400F8B
:1054000018BF4FF0FF302DB0BDE8F08F2DE9F84305
:105410009846224B1C680646D4F848010F46914630
:1054200018B904F5A670C4F8480143681F2B16DDAF
:105430001B4B1BB94FF0FF30BDE8F8834FF4C87029
:10544000AFF300800028F5D0D4F8481101600025A2
:105450004560C4F84801C0F88851C0F88C514468D0
:105460009EB100EB84050122C5F88890D0F8881120
:10547000A2401143022EC0F88811C5F8088104D15A
:10548000D0F88C311A43C0F88C21631C023443607D
:1054900040F824700020BDE8F88300BFC45C4000E1
:1054A0000000000010B55143FEF734FB044620B362
:1054B00050F8042C22F00302043A242A1AD8132AA2
:1054C00012D900211B2A0160416002D800F10803B3
:1054D0000BE0242A8160C16011BF00F1100301615B
:1054E00000F11803416100E0034600221A605A608F
:1054F0009A6002E00021FCF743FB204610BD00004B
:105500004FF0FF3C06E000BF4FF0010C02E000BF8F
:105510004FF0010C4DF804CD4FEA410C7FEA6C5C72
:105520004FEA430C18BF7FEA6C5C1BD001B050EA15
:10553000410C0CBF52EA430C91EA030F02BF90EA00
:10554000020F0020704710F1000F91EA030F58BFBF
:10555000994208BF90422CBFD8176FEAE37040F021
:10556000010070474FEA410C7FEA6C5C02D150EABF
:10557000013C07D14FEA430C7FEA6C5CD6D152EA7A
:10558000033CD3D05DF8040B704700BF844610463F
:1055900062468C461946634600E000BF01B5FFF73E
:1055A000B7FF002848BF10F1000F01BD4DF808ED0E
:1055B000FFF7F4FF0CBF012000205DF808FB00BFDF
:1055C0004DF808EDFFF7EAFF34BF012000205DF839
:1055D00008FB00BF4DF808EDFFF7E0FF94BF012086
:1055E00000205DF808FB00BF4DF808EDFFF7CEFF87
:1055F00094BF012000205DF808FB00BF4DF808EDC6
:10560000FFF7C4FF34BF012000205DF808FB00BF96
:105610004FEA410212F5001215D211D56FF47873DA
:10562000B3EB625212D94FEAC12343F0004343EA7D
:10563000505311F0004F23FA02F018BF4042704758
:105640004FF00000704750EA013005D111F00040E2
:1056500008BF6FF0004070474FF00000704700BF78
:105660004BB942B9002908BF002802D04FF0FF31E2
:10567000084600F03BB882B0EC462DE9005000F03F
:105680001DF8DDF804E002B00CBC70472DE9704352
:10569000069E14461D468046894600F029F804FB04
:1056A00001F300FB0533A4FB00451D44B8EB0404E3
:1056B00069EB0505C6E90045BDE870832DE9704337
:1056C000069E1446804689461D4600F05DF900FBA3
:1056D00005F504FB0153A0FB04451D44B8EB04048D
:1056E00069EB0505C6E90045BDE87083704700BF5A
:1056F00000292DE9F00FC0F29F800024002BC0F29A
:105700009680154606460F46002B3ED18A4257D951
:10571000B2FA82F34BB1C3F1200201FA03F720FA87
:1057200002F29D40174300FA03F6290CB7FBF1F291
:10573000330C01FB127CA8B243EA0C4700FB02F3D6
:10574000BB4209D97F1902F1FF3C80F00181BB42C5
:1057500040F2FE80023A2F44FF1AB7FBF1F3B6B2D3
:1057600001FB137146EA014100FB03F0884208D9AE
:10577000491903F1FF3780F0ED80884240F2EA805A
:10578000023B43EA0242002303E08B420AD9002392
:105790001A461046194614B1404261EB4101BDE87A
:1057A000F00F7047B3FA83F8B8F1000F40F084802F
:1057B0008B4202D3824200F2DE8000230122E8E71E
:1057C00012B90123B3FBF2F5B5FA85F2002A39D1FB
:1057D0007F1B280C1FFA85FC0123B7FBF0F1320C6C
:1057E00000FB117742EA07470CFB01F2BA4207D9E6
:1057F0007F1901F1FF3802D2BA4200F2C18041465E
:10580000BF1AB7FBF0F2B6B200FB127046EA0040D6
:105810000CFB02FC844507D9401902F1FF3702D284
:10582000844500F2AB803A4642EA0142B1E7E443E4
:10583000524263EB430364E7404261EB41014FF0A6
:10584000FF345BE79540C2F1200327FA03F1280CEF
:1058500026FA03F39740B1FBF0F81F433B0C00FB23
:1058600018111FFA85FC43EA01410CFB08F38B4237
:1058700006FA02F608D9491908F1FF3279D28B42AB
:1058800077D9A8F102082944C91AB1FBF0F3BFB2D5
:1058900000FB131147EA01470CFB03F2BA4207D998
:1058A0007F1903F1FF3160D2BA425ED9023B2F4427
:1058B000BF1A43EA084390E7C8F1200203FA08FC44
:1058C00025FA02F343EA0C0C4FEA1C4921FA02F3D1
:1058D00001FA08F720FA02F2B3FBF9F1174309FBCA
:1058E00011333A0C1FFA8CFB42EA03430BFB01FA1B
:1058F0009A4505FA08F008D913EB0C0301F1FF32C1
:1059000035D29A4533D902396344CAEB0303B3FB5A
:10591000F9F209FB1233BFB247EA03470BFB02F966
:10592000B94508D917EB0C0702F1FF331BD2B94573
:1059300019D9023A674442EA0145A5FB0001C9EBC7
:1059400007078F424FF000030AD305D02A4620E70D
:10595000624601E73B4614E706FA08F68642F5D2AE
:105960006A1E002315E71A46E5E70B46A0E7114635
:10597000CBE7904688E7434642460AE7023A53E7B8
:1059800002392F443CE700BF2DE9F00F14460546CD
:105990000E46002B43D18A4253D9B2FA82F757B14F
:1059A000C7F1200620FA06F601FA07F302FA07F417
:1059B0001E4300FA07F5210CB6FBF1F22B0C01FB9C
:1059C0001267A0B243EA074600FB02F3B34209D9CB
:1059D000361902F1FF3780F0F680B34240F2F380CF
:1059E000023A2644F61AB6FBF1F3ADB201FB13619D
:1059F00045EA014100FB03F0884208D9091903F187
:105A0000FF3680F0E280884240F2DF80023B43EACA
:105A10000242002310461946BDE8F00F70478B4242
:105A20004AD8B3FA83F6002E4DD18B4202D382427C
:105A300000F2D6800023012210461946BDE8F00F7F
:105A4000704712B90124B4FBF2F4B4FA84F2002ACC
:105A50007CD1091B260CA7B20123B1FBF6F02A0C5E
:105A600006FB101142EA014107FB00F28A4207D906
:105A7000091900F1FF3C02D28A4200F2C38060465D
:105A8000891AB1FBF6F2ADB206FB121145EA0145E7
:105A900007FB02F7AF4208D92C1902F1FF3180F061
:105AA0009680A74240F29380023A42EA00421046B2
:105AB0001946BDE8F00F704700231A4610461946F4
:105AC000BDE8F00F7047C6F1200522FA05F4B34097
:105AD0001C434FEA144821FA05F301FA06F720FAAD
